:1000000012C036C035C034C033C032C031C030C079
:10001000F3C32EC02DC02CC02BC02AC029C0F5C4EC
:1000200002C46F05FA0611241FBECFE5D2E0DEBF81
:10003000CDBF10E0A0E6B0E0E2EBF2E102C0059037
:100040000D92AA38B107D9F720E0AAE8B0E001C0C4
:100050001D92AD3FB207E1F710E0C2E1D0E003C06E
:100060002197FE0107D9C131D107D1F765D615C94E
:10007000C7CF1092900010928F0088EA8DB980EE61
:100080008EB90895EFB7F8944CB55DB5BA012091DB
:100090008A0030918B00C901589B04C04F3F5F4FCD
:1000A00009F00196EFBF08955FB7F894DC0113964D
:1000B000ED91FC911497218115969C91392F3095E3
:1000C000232321838281442361F0892B82838081D1
:1000D000982381E009F480E0FB0180835FBF80E02A
:1000E00008958323F3CFDC0112968C91129781112E
:1000F00014C02FB7F8941396ED91FC9114971596B0
:100100009C9115973281662349F0932B92839181BC
:1001100015963C91932B91832FBF0895909593232F
:10012000F5CF2F923F924F925F926F927F928F9274
:100130009F92AF92BF92CF92DF92EF92FF920F9376
:100140001F93CF93DF9300D01F92CDB7DEB79B8371
:100150008A83DC011C968C91882329F0813009F474
:1001600065C002E04CC0EA81FB81A284B384F6E062
:10017000AF0EB11CF0E82F2E86E089833FB6F894CD
:10018000AA81BB811A968D909C90F401838188236B
:1001900079F08081E3E0F0E0098002C0EE0FFF1FFC
:1001A0000A94E2F790E08E239F23892B09F456C02E
:1001B000280139016A017B0120E030E0A901CB016F
:1001C000B6019FD681113FC0D40113961C92AA811B
:1001D000BB811A96ED91FC911B9712821A96ED91B4
:1001E000FC91208183E090E0098002C0880F991F74
:1001F0000A94E2F780958223808300E03FBE802F3F
:100200000F900F900F90DF91CF911F910F91FF9062
:10021000EF90DF90CF90BF90AF909F908F907F90A6
:100220006F905F904F903F902F900895AA81BB816F
:100230001A96AD90BC90B6E0AB0EB11CE0E42E2E49
:10024000E4E0E9839BCF3FBE20E030E0A901C70195
:10025000B60157D687FF04C00EE3D1CF0DE3CECF52
:1002600020E034E244E75AE4C701B60194D71816F7
:100270009CF320E030E048E452E4C701B60141D6E7
:1002800087FDEACF20E030E04AE756E4C701B60137
:1002900082D718160CF320E034E244E756E4C70195
:1002A000B60179D787FF28C029E234E244EF54E44D
:1002B000C701B60170D787FF94C027ED33E244E74A
:1002C00053E4C701B60167D787FF90C026EF38E235
:1002D00044E752E4C701B6015ED787FF8CC026EF22
:1002E00038E244E751E4C701B60155D755E0952EF1
:1002F00087FDB2CF812C04C09924939488248394E1
:1003000060E08A819B81EFDE082F811178CF682D14
:1003100070E090E080E08FD6A701960140D79B0166
:10032000AC0160E074E284E79AE4EFD520E030E0CD
:1003300040E05FE381D551D6F62EEA81FB8141147E
:1003400051046104710409F459C046865786608AD5
:10035000718A98DEAA81BB8152966D937D938D93AD
:100360009C93559781E01D968C93AA81BB811A9628
:10037000ED91FC9183818770891105C0F501808121
:10038000F81609F43CCF9FB7F894AA81BB811A965E
:10039000ED91FC911B97808121E030E0098002C043
:1003A000220F331F0A94E2F7822B80831A96ED9175
:1003B000FC911B971382F501F0821A96ED91FC9146
:1003C0001B978281F81628F412821A96ED91FC91FF
:1003D0002382AA81BB811A96ED91FC9193829FBFE3
:1003E0000ECF32E0932E48E0842E8ACF93E0992EF0
:1003F00020E4822E85CF84E0982E7CCF1586B5CF61
:10040000D6988EE68EB9769BFECF9FB1892F8095C8
:10041000817090FFD69A08951FB8D69A9EE69EB92D
:10042000769BFECF8111D6980895D69889B384FF24
:10043000FDCF86FD07C099B390759031E1F381E05F
:10044000903509F080E008951BD7FF920F931F931A
:10045000CF93DF93EC01F8801981E42FF0E08F2D2A
:1004600090E0A12FB0E08A1B9B0B8E179F07BCF07A
:10047000042FCB01BE016E5F7F4F6A0F7B1FAF0160
:1004800003D7100FF11209C01882198280E0DF91A2
:10049000CF911F910F91FF9008951983F7CF86E1B7
:1004A000F6CF0F931F93CF93DF93FC011081A42FFE
:1004B000B0E0E12FF0E020E130E02E1B3F0B2A17E7
:1004C0003B077CF0042FEC010296AD018E0F9F1FBD
:1004D000DBD6100F188380E0DF91CF911F910F9131
:1004E000089585E1F9CFCF92DF92EF92FF920F93BB
:1004F0001F93CF93DF9300D01F92CDB7DEB77C015F
:100500008A0169016A3021F06B30B1F183E328C0C0
:100510001A82FA019081818198131AC0F8019081A2
:10052000818198133AC0F7018281811119C04A81F3
:10053000BE016D5F7F4FC701B7DD811111C08B8197
:10054000898341E0BE016F5F7F4FC601AADF08C00B
:1005500041E0BE016E5F7F4FC80177DF8823F1F273
:100560000F900F900F90DF91CF911F910F91FF90FF
:10057000EF90DF90CF90089541E0BE016F5F7F4F15
:10058000C80163DF8111ECCFF8019081818198135C
:1005900004C06981C701A7DDE3CF84E3E1CFEF9217
:1005A000FF920F931F93CF93DF93CDB7DEB72897BA
:1005B0000FB6F894DEBF0FBECDBF7C018A016E314D
:1005C000E1F519821A821B821C8244E0BE016B5F36
:1005D0007F4FC8013ADF811121C0F80190818181EC
:1005E000981314C0F80190818181981324C0F701F9
:1005F0008185811113C009811A812B813C814D8134
:100600005E816F817885C7018CDD08C044E0BE0142
:100610006F5F7F4FC80119DF882321F328960FB63B
:10062000F894DEBF0FBECDBFDF91CF911F910F9128
:10063000FF90EF90089584E3F1CF55DFEFCFCF9295
:10064000DF92EF92FF920F931F93CF93DF9300D02F
:1006500000D01F92CDB7DEB77C018A0169016431F9
:1006600009F064C01B8241E0BE016B5F7F4FC8018F
:10067000ECDE811147C08D818150873008F050C079
:1006800041E0BE016C5F7F4FC801DFDE81113AC0DF
:100690008C818F7709F046C0F80190818181981391
:1006A00029C0F8019081818198133EC0F7018681AD
:1006B000811128C08281811125C00C811D814B814F
:1006C000BE016F5F7F4FC701EFDC81111BC0F701D7
:1006D0008781082B07B9106D16B93699FECF84B102
:1006E00095B19A83898342E0BE016F5F7F4FC60157
:1006F000D8DE08C041E0BE016D5F7F4FC801A5DEB6
:10070000882379F20F900F900F900F900F90DF9148
:10071000CF911F910F91FF90EF90DF90CF900895B0
:1007200089E2F0CF8AE2EECF84E3ECCFDCDEEACFE1
:10073000BF92CF92DF92EF92FF920F931F93CF93CE
:10074000DF9300D01F92CDB7DEB77C018B0141E073
:10075000BE016D5F7F4F79DED82E81113FC08B8146
:100760008130E1F4D701BC9011968C91B81AC12C5C
:10077000CB14A1F141E0BE016E5F7F4FC70165DE82
:1007800081112BC08A81898341E0BE016F5F7F4F59
:10079000C80187DE811121C0C394EACF41E0BE01C8
:1007A0006F5F7F4FC70151DED82E811117C0E981DD
:1007B00082E3D82EE53090F4F0E0EE0FFF1FE05A10
:1007C000FF4F80819181DC01ED91FC910190F081DE
:1007D000E02D9801A7016B810995D82E8D2D0F90E2
:1007E0000F900F90DF91CF911F910F91FF90EF909D
:1007F000DF90CF90BF9008951F920F920FB60F9287
:1008000011248F939F9380918A0090918B00019681
:1008100090938B0080938A009F918F910F900FBED1
:100820000F901F9018951F920F920FB60F921124E0
:100830002F933F934F935F936F937F938F939F93E8
:10084000AF93BF93CF93EF93FF938FB120918F001E
:10085000309190002330310509F468C048F421300C
:100860003105F1F02230310509F44EC0D69820C090
:100870002530310509F4B6C008F483C026303105AF
:10088000A9F7BEDD8823A1F0809191008FB988EF90
:100890008DB980E68EB91092900010928F0022C020
:1008A00020918E00982F9E7F921302C080FF02C07D
:1008B000E0DB18C090919100890F8093910082E055
:1008C00090E09093900080938F001092920010928D
:1008D000930081E0A1DD88EF8DB980E68EB9A5DDBA
:1008E0008111E6CFFF91EF91CF91BF91AF919F9191
:1008F0008F917F916F915F914F913F912F910F90C9
:100900000FBE0F901F90189590919200903181F238
:10091000E92FF0E0E457FF4F80879F5F90939200AC
:1009200090919100890F80939100D3CF20918E00F8
:10093000982F9E7F9213BCCF80FFBACF90919100E9
:10094000890F9091B600C2E0911106C0C091A40039
:10095000CE5F9091A500C91B8C0F8093910084E01D
:1009600090E0C33010F485E090E090939000809385
:100970008F0080E051DDCFB988EF8DB980E68EB968
:10098000B1CF3EDD882309F493CF2091A400E091FC
:10099000A50080E02E1761F091E09E0FF0E0E45793
:1009A000FF4F828D29131BC01092A4001092A50046
:1009B00090919100980F909391008FB988EF8DB925
:1009C00080E68EB99091A4008091A50098138ACFFB
:1009D00085E090E09093900080938F0083CF909378
:1009E000A500E6CF0DDD882309F462CF9091B60013
:1009F00080919100890F809391009FB988EF8DB904
:100A000080E68EB986E090E0E5CF1F920F920FB698
:100A10000F9211242F933F934F935F936F937F9384
:100A20008F939F93AF93BF93EF93FF93D69889B320
:100A3000982F90759031D9F386FF12C01ADBFF9181
:100A4000EF91BF91AF919F918F917F916F915F9146
:100A50004F913F912F910F900FBE0F901F901895BF
:100A600088EF8DB980E68EB9779ADFDC8111E6CF09
:100A700080918F00909190000297B1F483E090E014
:100A80009093900080938F001092A4001092A50084
:100A9000E0918C00F0918D0064EA70E082E990E0D2
:100AA00009958093B600CBCF81E090E090939000C1
:100AB00080938F0010929100C2CFCF93DF931F924B
:100AC000CDB7DEB7FC012281211105C040E0BE0197
:100AD0006F5F7F4FE9DA0F90DF91CF910895BF925A
:100AE000CF92DF92EF92FF920F931F93CF93DF93FA
:100AF00010928B0010928A001CB812BC1EBC1FBC46
:100B000015BC14BC19BC18BC1BBC1ABC1DBC1CBC3D
:100B10008FB7F89432E0E32EEEBCFF24F394FCB8D8
:100B2000FBB88FBF10928D0010928C0010928E0037
:100B30001092900010928F001092910010929200EB
:100B4000109293001092A4001092A5001092B6008B
:100B5000C2E8D0E0D093F600C093F5001092F70001
:100B600049E3C42ED12CD092F900C092F80088E05D
:100B70008093FA0085EF90E0A0DF08E810E0109382
:100B8000F6000093F5001092FB0083E08093FC00D8
:100B9000D093EE00C093ED001092EF00D092F100E0
:100BA000C092F00054E0B52EB092F2008DEE90E0CD
:100BB00084DF1093EE000093ED001092F300E092BA
:100BC000F400D093E600C093E5001092E700D092C5
:100BD000E900C092E800E092EA0085EE90E06DDF67
:100BE0001093E6000093E5001092EB00F092EC0009
:100BF000D093DE00C093DD001092DF00D092E100C0
:100C0000C092E000F092E2008DED90E056DF10938C
:100C1000DE000093DD001092E3001092E400D09318
:100C2000C800C093C7001092C90086E390E090937B
:100C3000CB008093CA00B092CC0087EC90E03DDFFF
:100C40001092CF0084E790E09093C8008093C70093
:100C50008CE790E09093CE008093CD001092D0006E
:100C60001092D4001092D5001092D6001092D700A6
:100C70001092D8001092D9001092DA001092DB0086
:100C80001092DC0080E590E09093D2008093D10038
:100C90001092D30060E087EC90E025DA882319F009
:100CA0008093D00037C08091CF00811143C0E7EB23
:100CB000F0E090E080E021913191232BA9F5880F9D
:100CC000991FFC01E954FF4F8DEC90E091838083E4
:100CD00081E08093CF009FB7F894E091D100F0912C
:100CE000D2001382E091D100F091D2001082E09105
:100CF000D100F091D20014861682E091D100F091DB
:100D0000D2001282E091D100F091D2008081826005
:100D100080839FBFDF91CF911F910F91FF90EF9044
:100D2000DF90CF90BF90089501968830910519F615
:100D30008AE0B6CF8BE0B4CF84E881BF1DB888ECE1
:100D400080938E0088E993E090938D0080938C00CF
:100D5000CFB7F8948BB380658BBB8AB38F7A8061F1
:100D60008ABB87D9CFBF789407EC10E0C7EBD0E0FF
:100D700089919991009739F0DC01ED91FC910190F6
:100D8000F081E02D09950C171D0791F7EFCFFF9229
:100D90000F931F93CF93DF93FFB6F894FC01258543
:100DA0002223F9F0EC016ED90A891B892C893D892F
:100DB000601B710B820B930B0E851F852889398967
:100DC000601771078207930760F01D86898581117E
:100DD00008C000E010E0980140E050E0BA01CE0108
:100DE000A0D9FFBEDF91CF911F910F91FF90089581
:100DF0000697CDCF84E790E09093C8008093C7001A
:100E00008EE690E09093CE008093CD00E7EBF0E08B
:100E100090E080E0219131912D5C304041F4880FC9
:100E2000991FFC01E954FF4F118210820895019629
:100E30008830910579F708955058BB27AA270ED01E
:100E400070C161D130F066D120F031F49F3F11F4D0
:100E50001EF456C10EF4E095E7FB4CC1E92F72D1A8
:100E600080F3BA17620773078407950718F071F4C7
:100E70009EF58AC10EF4E0950B2EBA2FA02D0B0122
:100E8000B90190010C01CA01A0011124FF27591BCF
:100E900099F0593F50F4503E68F11A16F040A22FD5
:100EA000232F342F4427585FF3CF46953795279546
:100EB000A795F0405395C9F77EF41F16BA0B620B45
:100EC000730B840BBAF09150A1F0FF0FBB1F661F8C
:100ED000771F881FC2F70EC0BA0F621F731F841FCF
:100EE00048F4879577956795B795F7959E3F08F0F5
:100EF000B3CF9395880F08F09927EE0F97958795B4
:100F00000895D4D008F481E008950CD00AC102D12C
:100F100040F0F9D030F021F45F3F19F0EBC05111EF
:100F200034C1EEC00FD198F39923C9F35523B1F31F
:100F3000951B550BBB27AA2762177307840738F048
:100F40009F5F5F4F220F331F441FAA1FA9F333D0A7
:100F50000E2E3AF0E0E830D091505040E695001C5B
:100F6000CAF729D0FE2F27D0660F771F881FBB1F17
:100F7000261737074807AB07B0E809F0BB0B802DF1
:100F8000BF01FF2793585F4F2AF09E3F510568F03D
:100F9000B1C0FBC05F3FECF3983EDCF386957795DC
:100FA0006795B795F7959F5FC9F7880F911D96953F
:100FB000879597F90895E1E0660F771F881FBB1F9B
:100FC000621773078407BA0720F0621B730B840B48
:100FD000BA0BEE1F88F7E0950895BCD088F09F57B4
:100FE00090F0B92F9927B751A0F0D1F0660F771F75
:100FF000881F991F1AF0BA95C9F712C0B13081F055
:10100000C3D0B1E00895C0C0672F782F8827B85F9C
:1010100039F0B93FCCF3869577956795B395D9F7B5
:101020003EF490958095709561957F4F8F4F9F4FBF
:101030000895E89409C097FB3EF4909580957095CB
:1010400061957F4F8F4F9F4F9923A9F0F92F96E914
:10105000BB279395F695879577956795B795F11189
:10106000F8CFFAF4BB0F11F460FF1BC06F5F7F4F26
:101070008F4F9F4F16C0882311F096E911C0772338
:1010800021F09EE8872F762F05C0662371F096E841
:10109000862F70E060E02AF09A95660F771F881F10
:1010A000DAF7880F9695879597F90895990F0008B4
:1010B000550FAA0BE0E8FEEF16161706E807F9072A
:1010C000C0F012161306E407F50798F0621B730BC5
:1010D000840B950B39F40A2661F0232B242B252B46
:1010E00021F408950A2609F4A140A6958FEF811DE9
:1010F000811D089597F99F6780E870E060E008958A
:101100009FEF80EC089500240A941616170618061F
:101110000906089500240A941216130614060506FB
:101120000895092E0394000C11F4882352F0BB0F8C
:1011300040F4BF2B11F460FF04C06F5F7F4F8F4FEF
:101140009F4F089557FD9058440F551F59F05F3F2A
:1011500071F04795880F97FB991F61F09F3F79F0D9
:1011600087950895121613061406551FF2CF46955B
:10117000F1DF08C0161617061806991FF1CF8695DD
:101180007105610508940895E894BB2766277727C1
:10119000CB0197F908958ADF08F48FEF08950AD0FC
:1011A000C0CFB1DF28F0B6DF18F0952309F0A2CF49
:1011B000A7CFEBCFC7DFA8F39923D9F35523C9F302
:1011C000950F50E0551FAA27EE27FF27BB270024C5
:1011D0000894679520F4E20FF31FB41F0A1E220F34
:1011E000331F441FAA1F6695A9F7779530F4F30FB4
:1011F000B41F0A1E121E08F46395330F441FAA1F62
:10120000221F769599F7879520F4B40F0A1E121EB7
:10121000631F440FAA1F221F331F8695A9F7862F2D
:10122000712D602D11249F5750408AF0E1F08823E2
:101230004AF0EE0FFF1FBB1F661F771F881F9150DC
:101240005040A9F79E3F510570F054CF9ECF5F3FAD
:10125000ECF3983EDCF3869577956795B795F7950F
:10126000E7959F5FC1F7FE2B880F911D9695879597
:1012700097F90895EE0FFF1F0590F491E02D099462
:1012800081E090E0F89409C0FB01DC0102C001900C
:101290000D9241505040D8F7089510E0C2E1D0E0DF
:1012A00003C0FE01E7DF2196C331D107D1F7F894DF
:0212B000FFCF6E
:1012B200F500ED00E500DD00C7000000000024029B
:1012C20000000000CF02C706FAFF0000F806000087
:0A12D20000007302000000001F037B
:00000001FF
