:1000000011C035C034C033C032C031C030C02FC081
:100010002EC02DC02CC02BC02AC029C028C0F7C2BA
:10002000FCC1710311241FBECFE5D2E0DEBFCDBFFE
:1000300010E0A0E6B0E0E2E6FAE002C005900D9222
:10004000AA37B107D9F720E0AAE7B0E001C01D92B6
:10005000AF3AB207E1F710E0C2E1D0E003C0219768
:10006000FE01C9D3C131D107D1F7ACD3F8C4C8CF91
:1000700010927E0010927D0088EA8DB980EE8EB9D4
:1000800008955FB7F894DC011396ED91FC911497F5
:10009000218115969C91392F3095232321838281CC
:1000A000442361F0892B82838081982381E009F4C5
:1000B00080E0FB0180835FBF80E008958323F3CF5E
:1000C000D6988EE68EB9769BFECF9FB1892F80950C
:1000D000817090FFD69A08951FB8D69A9EE69EB971
:1000E000769BFECF8111D6980895D69889B384FF68
:1000F000FDCF86FD07C099B390759031E1F381E0A3
:10010000903509F080E00895FC0191818281292FCA
:1001100030E0482F50E0241B350B1216130684F4F0
:10012000A381B481A40FB51F2C91DB012C938F5FA9
:10013000981304C01182128280E008958283FCCF5C
:1001400086E108950F931F93CF93DF93FC01C18144
:10015000A42FB0E0208130E08C2F90E0281B390BD9
:100160002A173B078CF0D42F8F0123813481AD01F6
:10017000820F931F6BD4CD0FF801C18380E0DF9114
:10018000CF911F910F91089585E1F9CFCF92DF9222
:10019000EF92FF920F931F93CF93DF9300D01F92A4
:1001A000CDB7DEB77C018A0169016A3021F06B307E
:1001B000C9F183E32BC01A82DA0111969C91119741
:1001C00012968C9198131BC0F8019181828198132B
:1001D00055C0D70112968C91811118C04A81BE0179
:1001E0006D5F7F4FC7014DDF811110C08B81898307
:1001F00041E0BE016F5F7F4FC601A4DF07C0BE01B3
:100200006E5F7F4FCA0180DF8823F1F20F900F905D
:100210000F90DF91CF911F910F91FF90EF90DF90A2
:10022000CF900895BE016F5F7F4FCA016DDF8111CE
:10023000EDCFF80191818281981320C0D7011296E9
:100240008C9112978111E2CF39812FB7F8941396D0
:10025000ED91FC91149715969C91332359F03281BE
:10026000932B92839181D70115963C91932B918387
:100270002FBFCCCF328190959323F3CF84E3C6CFA9
:10028000AF92BF92DF92EF92FF920F931F93CF93A3
:10029000DF9300D000D0CDB7DEB78C017A015901D1
:1002A000643109F055C0BE016D5F7F4FCA012CDF7C
:1002B00081113AC08B818150873008F043C0BE0164
:1002C0006C5F7F4FC70120DF81112EC0DC808D2D38
:1002D0008F77D1F5F70191818281981337C0F801AA
:1002E0008681811121C0828181111EC0FB8040E086
:1002F000BE016F5F7F4FC801C4DE811115C0F801D8
:100300008781D82AD7B88F2D806D86B93699FECFD0
:1003100084B195B19A83898342E0BE016F5F7F4FBC
:10032000C50110DF811100C00F900F900F900F904A
:10033000DF91CF911F910F91FF90EF90DF90BF90D1
:10034000AF90089589E2F0CF8AE2EECF84E3ECCF5C
:100350001DDFEACFBF92CF92DF92EF92FF920F9311
:100360001F93CF93DF9300D01F92CDB7DEB77C01F0
:100370008B01BE016D5F7F4FC7DED82E81113FC05C
:100380008B818130E9F4D7011196BC9011971296B8
:100390008C91B81AC12CCB1491F1BE016E5F7F4FC6
:1003A000C701B2DE81112AC08A81898341E0BE0182
:1003B0006F5F7F4FC801C6DE811120C0C394EBCFB1
:1003C000BE016F5F7F4FC7019FDED82E811117C01E
:1003D000E98182E3D82EE43090F4F0E0EE0FFF1FC5
:1003E000EA59FF4F80819181DC01ED91FC910190F0
:1003F000F081E02D9801A7016B810995D82E8D2DF4
:100400000F900F900F90DF91CF911F910F91FF9060
:10041000EF90DF90CF90BF9008951F920F920FB68C
:100420000F9211242F933F934F935F936F937F937A
:100430008F939F93AF93BF93CF93EF93FF938FB11E
:1004400020917D0030917E002330310509F46CC08D
:1004500048F421303105F1F02230310509F44EC065
:10046000D69820C02530310509F4BEC008F487C0F5
:1004700026303105A9F724DE8823A1F080917F0082
:100480008FB988EF8DB980E68EB910927E001092F8
:100490007D0022C020917C00982F9E7F921302C085
:1004A00080FF02C0E5DD18C090917F00890F809326
:1004B0007F0082E090E090937E0080937D00109218
:1004C00081001092820081E007DE88EF8DB980E61E
:1004D0008EB90BDE8111E6CFFF91EF91CF91BF91E5
:1004E000AF919F918F917F916F915F914F913F91CC
:1004F0002F910F900FBE0F901F9018959091810033
:1005000020918000921771F2E0918300F0918400B5
:10051000E90FF11D80839F5F9093810090917F0090
:10052000890F80937F00CFCF20917C00982F9E7FF2
:100530009213B8CF80FFB6CF90917F00890F909132
:100540008A00C2E0911106C0C0918600CE5F9091F2
:100550008700C91B8C0F80937F0084E090E0C3303C
:1005600010F485E090E090937E0080937D0080E021
:10057000B3DDCFB988EF8DB980E68EB9ADCFA0DD00
:10058000882309F48FCF20918600E091870080E0D6
:100590002E1781F091E09E0F4091880050918900C4
:1005A000E40FF52FF11D808129131BC010928600E6
:1005B0001092870090917F00980F90937F008FB9E1
:1005C00088EF8DB980E68EB9909186008091870082
:1005D000981382CF85E090E090937E0080937D0019
:1005E0007BCF90938700E6CF6BDD882309F45ACF49
:1005F00090918A0080917F00890F80937F009FB93E
:1006000088EF8DB980E68EB986E090E0E5CF1F9245
:100610000F920FB60F9211242F933F934F935F9336
:100620006F937F938F939F93AF93BF93EF93FF93BA
:10063000D69889B3982F90759031D9F386FF12C060
:1006400017DDFF91EF91BF91AF919F918F917F91B6
:100650006F915F914F913F912F910F900FBE0F902F
:100660001F90189588EF8DB980E68EB9779A3DDD99
:100670008111E6CF80917D0090917E000297B1F4C8
:1006800083E090E090937E0080937D00109286003E
:1006900010928700E0917A00F0917B0065E870E0AD
:1006A00080E890E0099580938A00CBCF81E090E0CC
:1006B00090937E0080937D0010927F00C2CFCF93F5
:1006C000DF931F92CDB7DEB7FC012281211105C057
:1006D00040E0BE016F5F7F4FD4DC0F90DF91CF9180
:1006E0000895CF92DF92EF92FF920F931F93CF93D3
:1006F000DF93CAE7D0E0198218821A821C821B821B
:100700001D8280E18E831F82188680E190E079D07F
:100710009A87898718E01B871C861D8688E090E0F1
:1007200070D09F878E87188AC3EAD0E082E7C82EF0
:1007300080E0D82ED982C8821A8299E3E92EF12C62
:10074000FC82EB821D83CE01BADF08E710E019833B
:1007500008831E8283E08F83CBE9D0E0D982C882F0
:100760001A82FC82EB8284E08D83CE01A8DF19839C
:1007700008831E8282E08F83C3E9D0E0D982C882D9
:100780001A82FC82EB828D83CE0199DF1983088364
:100790001E8281E08F83CBE8D0E0D982C8821A82A2
:1007A000FC82EB828D83CE018ADF198308831E824F
:1007B0001F82DF91CF911F910F91FF90EF90DF90FB
:1007C000CF900895BA9AC2981DB888EC80937C00A7
:1007D0008AEA91E090937B0080937A00CFB7F894F7
:1007E0008BB380658BBB8AB38F7A80618ABB40DC18
:1007F000CFBF7894FFCFEE0FFF1F0590F491E02D4F
:1008000009940F931F93CF93DF938230910510F4D7
:1008100082E090E0E091AD00F091AE0030E020E0A9
:10082000B0E0A0E0309799F42115310509F44AC0F1
:10083000281B390B24303105D8F58A819B8161153D
:10084000710589F1FB0193838283FE0111C0408110
:1008500051810281138148175907E0F04817590761
:1008600099F4109761F012960C93129713961C93BB
:100870003296CF01DF91CF911F910F910895009390
:10088000AD001093AE00F4CF2115310551F04217A1
:10089000530738F0A901DB019A01BD01DF01F8011E
:1008A000C1CFEF01F9CF9093AE008093AD00CDCFD3
:1008B000FE01E20FF31F8193919322503109398396
:1008C0002883D7CF2091AB003091AC00232B41F48B
:1008D00020916200309163003093AC002093AB0014
:1008E00020916000309161002115310541F42DB750
:1008F0003EB74091640050916500241B350BE09198
:10090000AB00F091AC00E217F307A0F42E1B3F0BF5
:100910002817390778F0AC014E5F5F4F2417350771
:1009200048F04E0F5F1F5093AC004093AB00819393
:1009300091939FCFF0E0E0E09CCFCF93DF930097BF
:10094000E9F0FC01329713821282A091AD00B091C0
:10095000AE00ED0130E020E01097A1F4208131815C
:10096000820F931F2091AB003091AC0028173907FC
:1009700009F061C0F093AC00E093AB00DF91CF9140
:100980000895EA01CE17DF07E8F54A815B819E01F1
:1009900041155105B1F7E901FB83EA83499159916A
:1009A000C40FD51FEC17FD0761F480819181029679
:1009B000840F951FE90199838883828193819B83AA
:1009C0008A83F0E0E0E012968D919C911397009756
:1009D000B9F52D913C911197CD010296820F931F8D
:1009E0002091AB003091AC002817390739F63097C9
:1009F00051F51092AE001092AD00B093AC00A093F0
:100A0000AB00BCCFD383C28340815181840F951F3B
:100A1000C817D90761F44E5F5F4F88819981480FED
:100A2000591F518340838A819B819383828321153F
:100A3000310509F0B0CFF093AE00E093AD009ECF4A
:100A4000FD01DC01C0CF13821282D7CFFB01DC0194
:100A500002C001900D9241505040D8F70895F8948B
:020A6000FFCFC6
:100A62000000AF008000A3009B0093008B000000F9
:0A0A72000000C60000000000400173
:00000001FF
