:1000000012C036C035C034C033C032C031C030C079
:100010002FC02EC02DC02CC02BC02AC029C07AC42E
:100020007FC3F504320611241FBECFE5D2E0DEBF48
:10003000CDBF10E0A0E6B0E0ECE6F3E102C0059031
:100040000D92A039B107D9F720E0A0E9B0E001C0D6
:100050001D92A23EB207E1F710E0C2E1D0E003C07A
:100060002197FE013FD8C131D107D1F7D0D572C950
:10007000C7CF109294001092930088EA8DB980EE59
:100080008EB908955FB7F894DC011396ED91FC9159
:100090001497218115969C91392F30952323218324
:1000A0008281442361F0892B82838081982381E0BF
:1000B00009F480E0FB0180835FBF80E00895832323
:1000C000F3CFDC0112968C911297811114C02FB7D7
:1000D000F8941396ED91FC91149715969C911597B1
:1000E0003281662349F0932B9283918115963C913E
:1000F000932B91832FBF089590959323F5CFD69896
:100100008EE68EB9769BFECF9FB1892F8095817048
:1001100090FFD69A08951FB8D69A9EE69EB9769B10
:10012000FECF8111D6980895D69889B384FFFDCF6C
:1001300086FD07C099B390759031E1F381E0903569
:1001400009F080E00895F9D8FF920F931F93CF93A1
:10015000DF93EC01F9801A81E42FF0E08F2D90E01D
:10016000A12FB0E08A1B9B0B8E179F07B4F0042FC2
:10017000CB016B817C816A0F7B1FAF01E2D8100F2E
:10018000F11209C019821A8280E0DF91CF911F918C
:100190000F91FF9008951A83F7CF86E1F6CF0F9362
:1001A0001F93CF93DF93FC01C181A42FB0E0208186
:1001B00030E08C2F90E0281B390B2A173B078CF07E
:1001C000D42F8F0123813481AD01820F931FB9D8C1
:1001D000CD0FF801C18380E0DF91CF911F910F9186
:1001E000089585E1F9CFCF92DF92EF92FF920F93BE
:1001F0001F93CF93DF9300D01F92CDB7DEB77C0162
:100200008A0169016A3021F06B30B1F183E328C0C3
:100210001A82FA019181828198131AC0F8019181A2
:10022000828198133AC0F7018281811119C04A81F5
:10023000BE016D5F7F4FC70125DF811111C08B812A
:10024000898341E0BE016F5F7F4FC601A8DF08C010
:1002500041E0BE016E5F7F4FC80176DF8823F1F277
:100260000F900F900F90DF91CF911F910F91FF9002
:10027000EF90DF90CF90089541E0BE016F5F7F4F18
:10028000C80162DF8111ECCFF8019181828198135E
:1002900004C06981C70115DFE3CF84E3E1CF4F924A
:1002A0005F926F927F928F929F92AF92BF92CF9206
:1002B000DF92EF92FF920F931F93CF93DF9300D0C3
:1002C00000D000D0CDB7DEB77C016A016E3109F0F5
:1002D00054C11E821D8244E0BE016F5F7F4FC60184
:1002E00033DF182F811127C0D60111969C911197E9
:1002F00012968C91981316C0F6019181828114E3B5
:10030000981319C0D70119961C911997111113C090
:100310001C968C911C97882331F1813009F468C0B8
:1003200012E009C042E0BE016B5F7F4FC6010CDFE7
:10033000182F882309F3812F26960FB6F894DEBF75
:100340000FBECDBFDF91CF911F910F91FF90EF9026
:10035000DF90CF90BF90AF909F908F907F906F90E5
:100360005F904F900895F701C284D384F6E0CF0EDA
:10037000D11C50E8952E06E049805A806B807C8025
:100380008FB6F894F701A284B384D50113968C91AB
:100390001397882371F02C9183E090E0002E02C027
:1003A000880F991F0A94E2F730E082239323892B68
:1003B000A1F120E030E0A901C301B201DAD481113A
:1003C00021C0F5011382D7011A96ED91FC911B977C
:1003D00012821A96ED91FC91208183E090E001C099
:1003E000880F0A95EAF78095822380838FBEA3CF7A
:1003F0001A96CD90DC90B6E0CB0ED11C40E4942E42
:1004000004E0BACF8FBE20E030E0A901C301B20101
:10041000B0D487FF05C01EE38ECF8FBE1DE38BCF08
:1004200020E034E244E75AE4C301B201ECD51816E7
:1004300094F320E030E048E452E4C301B20199D4DF
:1004400087FDE9CF20E030E04AE756E4C301B2017E
:10045000DAD5181604F320E034E244E756E4C30189
:10046000B201D1D587FF28C029E234E244EF54E439
:10047000C301B201C8D587FF75C027ED33E244E759
:1004800053E4C301B201BFD587FF70C026EF38E245
:1004900044E752E4C301B201B6D587FF6BC026EF33
:1004A00038E244E751E4C301B201ADD535E0B32EE3
:1004B00087FDB1CF60E003C0BB24B39461E070E07E
:1004C00090E080E0F0D4A3019201A1D59B01AC01A2
:1004D00060E074E284E79AE450D420E030E040E049
:1004E0005FE3E2D3B2D4A62ED7011A96ED91FC9128
:1004F000838187708B1105C0F6018081A81609F4ED
:100500001ACF60E0C701DDDD811138C09FB7F894D4
:10051000D7011A96ED91FC911B971382F601A082E8
:100520001A96ED91FC911B9782818A1538F0128200
:100530001A96ED91FC918081982A9082D7011A96A3
:10054000ED91FC911B97B3821A96ED91FC918081FD
:1005500021E030E001C0220F0A95EAF7822B808368
:100560009FBF45CF22E0B22E68E0A9CF93E0B92E1D
:1005700060E4A5CF84E0B82E9DCF35DE182FDBCE0A
:10058000AF92BF92DF92EF92FF920F931F93CF93A0
:10059000DF9300D000D0CDB7DEB78C017A015901CE
:1005A000643109F055C041E0BE016C5F7F4FC70167
:1005B000CBDD811139C08C818150873008F042C079
:1005C00041E0BE016D5F7F4FC701BEDD81112CC0D0
:1005D000DB808D2D8F77C1F5F70191818281981392
:1005E00035C0F801868181111FC0828181111CC034
:1005F000FC8040E0BE016F5F7F4FC80143DD811189
:1006000013C0F8018781D82AD7B88F2D806D86B99D
:100610003699FECF84B195B19A83898342E0BE01B9
:100620006F5F7F4FC501BBDD0F900F900F900F9054
:10063000DF91CF911F910F91FF90EF90DF90BF90CE
:10064000AF90089589E2F0CF8AE2EECF84E3ECCF59
:10065000CADDEACFBF92CF92DF92EF92FF920F9363
:100660001F93CF93DF9300D01F92CDB7DEB77C01ED
:100670008B0141E0BE016D5F7F4F66DDD82E811199
:1006800041C08B818130F1F4D7011196BC90119754
:1006900012968C91B81AC12CCB14A1F141E0BE0185
:1006A0006E5F7F4FC70150DD81112BC08A81898326
:1006B00041E0BE016F5F7F4FC80171DD811121C034
:1006C000C394EACF41E0BE016F5F7F4FC7013CDDBD
:1006D000D82E811117C0E98182E3D82EE53090F43D
:1006E000F0E0EE0FFF1FEA59FF4F80819181DC019E
:1006F000ED91FC910190F081E02D9801A7016B81B3
:100700000995D82E8D2D0F900F900F90DF91CF91DE
:100710001F910F91FF90EF90DF90CF90BF900895C1
:100720001F920F920FB60F9211242F933F934F9366
:100730005F936F937F938F939F93AF93BF93CF9369
:10074000EF93FF938FB12091930030919400233069
:10075000310509F46CC048F421303105F1F0223044
:10076000310509F44EC0D69820C02530310509F472
:10077000BEC008F487C026303105A9F7C0DC882345
:10078000A1F0809195008FB988EF8DB980E68EB980
:10079000109294001092930022C020919200982F02
:1007A0009E7F921302C080FF02C063DC18C090914C
:1007B0009500890F8093950082E090E090939400DB
:1007C00080939300109297001092980081E0A3DC30
:1007D00088EF8DB980E68EB9A7DC8111E6CFFF9155
:1007E000EF91CF91BF91AF919F918F917F916F9139
:1007F0005F914F913F912F910F900FBE0F901F90DF
:1008000018959091970020919600921771F2E091BF
:100810009900F0919A00E90FF11D80839F5F9093FA
:10082000970090919500890F80939500CFCF2091EC
:100830009200982F9E7F9213B8CF80FFB6CF9091F1
:100840009500890F9091A000C2E0911106C0C0915F
:100850009C00CE5F90919D00C91B8C0F80939500EA
:1008600084E090E0C33010F485E090E09093940031
:100870008093930080E04FDCCFB988EF8DB980E69C
:100880008EB9ADCF3CDC882309F48FCF20919C003A
:10089000E0919D0080E02E1781F091E09E0F409145
:1008A0009E0050919F00E40FF52FF11D80812913C8
:1008B0001BC010929C0010929D0090919500980F83
:1008C000909395008FB988EF8DB980E68EB990919D
:1008D0009C0080919D00981382CF85E090E09093DA
:1008E0009400809393007BCF90939D00E6CF07DC2C
:1008F000882309F45ACF9091A00080919500890F28
:10090000809395009FB988EF8DB980E68EB986E017
:1009100090E0E5CF1F920F920FB60F9211242F9304
:100920003F934F935F936F937F938F939F93AF9377
:10093000BF93EF93FF93D69889B3982F907590311A
:10094000D9F386FF12C095DBFF91EF91BF91AF9174
:100950009F918F917F916F915F914F913F912F91D7
:100960000F900FBE0F901F90189588EF8DB980E6FD
:100970008EB9779AD9DB8111E6CF8091930090915F
:1009800094000297B1F483E090E0909394008093F8
:10099000930010929C0010929D00E0919000F091C5
:1009A00091006BE970E086E990E009958093A000E2
:1009B000CBCF81E090E090939400809393001092CD
:1009C0009500C2CF0895CF93DF931F92CDB7DEB7C6
:1009D000FC012281211105C040E0BE016F5F7F4F05
:1009E00051DB0F90DF91CF910895DF92EF92FF924C
:1009F0000F931F93CF93DF9310929100109290006A
:100A00001092920010929400109293001092950010
:100A100080E180939600109297001092980080E1F8
:100A200090E066D390939A008093990018E0109319
:100A30009B0010929C0010929D0088E090E058D39B
:100A400090939F0080939E001092A000C8E8D0E091
:100A5000D093D700C093D6001092D80039E3E32E8C
:100A6000F12CF092DA00E092D9001093DB0086EDD1
:100A700090E0A9DF0EE810E01093D7000093D600B5
:100A80001092DC0083E08093DD00D093CF00C09310
:100A9000CE001092D000F092D200E092D10044E05B
:100AA000D42ED092D3008EEC90E08DDF1093CF0047
:100AB0000093CE001092D40082E08093D500D093B2
:100AC000C700C093C6001092C800F092CA00E0921E
:100AD000C9008093CB0086EC90E075DF1093C700CF
:100AE0000093C6001092CC0081E08093CD00D0939B
:100AF000BF00C093BE001092C000F092C200E0920E
:100B0000C1008093C3008EEB90E05DDF1093BF00C7
:100B10000093BE001092C4001092C500D093B200A2
:100B2000C093B1001092B30086E390E09093B500BB
:100B30008093B400D092B60081EB90E044DF109235
:100B4000B9008AE790E09093B2008093B10082E808
:100B500090E09093B8008093B7001092BA0080E5BF
:100B600090E09093BC008093BB001092BD0060E0C9
:100B700081EB90E0A6DA882319F08093BA0037C0A1
:100B80008091B900811141C0E1EAF0E090E080E09D
:100B900021913191232B99F5880F991FFC01EF5575
:100BA000FF4F87EB90E09183808381E08093B900D1
:100BB0009FB7F894E091BB00F091BC001382E091E4
:100BC000BB00F091BC001082E091BB00F091BC0032
:100BD00014861682E091BB00F091BC001282E09175
:100BE000BB00F091BC008081826080839FBFDF9159
:100BF000CF911F910F91FF90EF90DF900895019694
:100C00008830910529F68AE0B8CF8BE0B6CF80E82E
:100C100081BF1DB888EC809392008AE293E09093A4
:100C2000910080939000CFB7F8948BB380658BBB15
:100C30008AB38F7A80618ABB1CDACFBF789401EBCC
:100C400010E0C1EAD0E089919991009739F0DC0178
:100C5000ED91FC910190F081E02D09950C171D0795
:100C600091F7EFCF8AE790E09093B2008093B100C4
:100C700084E790E09093B8008093B700E1EAF0E059
:100C800090E080E021913191275B304041F4880F62
:100C9000991FFC01EF55FF4F1182108208950196B4
:100CA0008830910579F708955058BB27AA270ED0B0
:100CB00070C161D130F066D120F031F49F3F11F462
:100CC0001EF456C10EF4E095E7FB4CC1E92F72D13A
:100CD00080F3BA17620773078407950718F071F459
:100CE0009EF58AC10EF4E0950B2EBA2FA02D0B01B4
:100CF000B90190010C01CA01A0011124FF27591B61
:100D000099F0593F50F4503E68F11A16F040A22F66
:100D1000232F342F4427585FF3CF469537952795D7
:100D2000A795F0405395C9F77EF41F16BA0B620BD6
:100D3000730B840BBAF09150A1F0FF0FBB1F661F1D
:100D4000771F881FC2F70EC0BA0F621F731F841F60
:100D500048F4879577956795B795F7959E3F08F086
:100D6000B3CF9395880F08F09927EE0F9795879545
:100D70000895D4D008F481E008950CD00AC102D1BE
:100D800040F0F9D030F021F45F3F19F0EBC0511181
:100D900034C1EEC00FD198F39923C9F35523B1F3B1
:100DA000951B550BBB27AA2762177307840738F0DA
:100DB0009F5F5F4F220F331F441FAA1FA9F333D039
:100DC0000E2E3AF0E0E830D091505040E695001CED
:100DD000CAF729D0FE2F27D0660F771F881FBB1FA9
:100DE000261737074807AB07B0E809F0BB0B802D83
:100DF000BF01FF2793585F4F2AF09E3F510568F0CF
:100E0000B1C0FBC05F3FECF3983EDCF3869577956D
:100E10006795B795F7959F5FC9F7880F911D9695D0
:100E2000879597F90895E1E0660F771F881FBB1F2C
:100E3000621773078407BA0720F0621B730B840BD9
:100E4000BA0BEE1F88F7E0950895BCD088F09F5745
:100E500090F0B92F9927B751A0F0D1F0660F771F06
:100E6000881F991F1AF0BA95C9F712C0B13081F0E6
:100E7000C3D0B1E00895C0C0672F782F8827B85F2E
:100E800039F0B93FCCF3869577956795B395D9F747
:100E90003EF490958095709561957F4F8F4F9F4F51
:100EA0000895E89409C097FB3EF49095809570955D
:100EB00061957F4F8F4F9F4F9923A9F0F92F96E9A6
:100EC000BB279395F695879577956795B795F1111B
:100ED000F8CFFAF4BB0F11F460FF1BC06F5F7F4FB8
:100EE0008F4F9F4F16C0882311F096E911C07723CA
:100EF00021F09EE8872F762F05C0662371F096E8D3
:100F0000862F70E060E02AF09A95660F771F881FA1
:100F1000DAF7880F9695879597F90895990F000845
:100F2000550FAA0BE0E8FEEF16161706E807F907BB
:100F3000C0F012161306E407F50798F0621B730B56
:100F4000840B950B39F40A2661F0232B242B252BD7
:100F500021F408950A2609F4A140A6958FEF811D7A
:100F6000811D089597F99F6780E870E060E008951B
:100F70009FEF80EC089500240A94161617061806B1
:100F80000906089500240A9412161306140605068D
:100F90000895092E0394000C11F4882352F0BB0F1E
:100FA00040F4BF2B11F460FF04C06F5F7F4F8F4F81
:100FB0009F4F089557FD9058440F551F59F05F3FBC
:100FC00071F04795880F97FB991F61F09F3F79F06B
:100FD00087950895121613061406551FF2CF4695ED
:100FE000F1DF08C0161617061806991FF1CF86956F
:100FF0007105610508940895E894BB276627772753
:10100000CB0197F908958ADF08F48FEF08950AD08D
:10101000C0CFB1DF28F0B6DF18F0952309F0A2CFDA
:10102000A7CFEBCFC7DFA8F39923D9F35523C9F393
:10103000950F50E0551FAA27EE27FF27BB27002456
:101040000894679520F4E20FF31FB41F0A1E220FC5
:10105000331F441FAA1F6695A9F7779530F4F30F45
:10106000B41F0A1E121E08F46395330F441FAA1FF3
:10107000221F769599F7879520F4B40F0A1E121E49
:10108000631F440FAA1F221F331F8695A9F7862FBF
:10109000712D602D11249F5750408AF0E1F0882374
:1010A0004AF0EE0FFF1FBB1F661F771F881F91506E
:1010B0005040A9F79E3F510570F054CF9ECF5F3F3F
:1010C000ECF3983EDCF3869577956795B795F795A1
:1010D000E7959F5FC1F7FE2B880F911D9695879529
:1010E00097F90895EE0FFF1F0590F491E02D0994F4
:1010F0000F931F93CF93DF938230910510F482E01A
:1011000090E0E091E000F091E10030E020E0B0E01C
:10111000A0E0309799F42115310509F44AC0281B45
:10112000390B24303105D8F58A819B816115710511
:1011300089F1FB0193838283FE0111C040815181BB
:101140000281138148175907E0F04817590799F4AD
:10115000109761F012960C93129713961C93329687
:10116000CF01DF91CF911F910F9108950093E0007F
:101170001093E100F4CF2115310551F042175307C8
:1011800038F0A901DB019A01BD01DF01F801C1CFEF
:10119000EF01F9CF9093E1008093E000CDCFFE0105
:1011A000E20FF31F819391932250310939832883F1
:1011B000D7CF2091DE003091DF00232B41F4209126
:1011C0006200309163003093DF002093DE002091B5
:1011D0006000309161002115310541F42DB73EB713
:1011E0004091640050916500241B350BE091DE00B6
:1011F000F091DF00E217F307A0F42E1B3F0B281736
:10120000390778F0AC014E5F5F4F2417350748F07F
:101210004E0F5F1F5093DF004093DE008193919348
:101220009FCFF0E0E0E09CCFCF93DF930097E9F011
:10123000FC01329713821282A091E000B091E1008C
:10124000ED0130E020E01097A1F420813181820F80
:10125000931F2091DE003091DF002817390709F035
:1012600061C0F093DF00E093DE00DF91CF9108953D
:10127000EA01CE17DF07E8F54A815B819E0141153F
:101280005105B1F7E901FB83EA8349915991C40FF4
:10129000D51FEC17FD0761F4808191810296840FC0
:1012A000951FE90199838883828193819B838A8337
:1012B000F0E0E0E012968D919C9113970097B9F5BC
:1012C0002D913C911197CD010296820F931F209191
:1012D000DE003091DF002817390739F6309751F5D5
:1012E0001092E1001092E000B093DF00A093DE00C6
:1012F000BCCFD383C28340815181840F951FC8170F
:10130000D90761F44E5F5F4F88819981480F591F5B
:10131000518340838A819B81938382832115310588
:1013200009F0B0CFF093E100E093E0009ECFFD0123
:10133000DC01C0CF13821282D7CF81E090E0F89415
:1013400009C0FB01DC0102C001900D9241505040E8
:10135000D8F7089510E0C2E1D0E003C0FE01C2DE7C
:0C1360002196C331D107D1F7F894FFCFDC
:10136C000000E2008000D600CE00C600BE00B10036
:10137C0000000000A300000000004F01E204FAFF8F
:10138C000000E20400000000F30000000000C002B6
:00000001FF
