:1000000012C036C035C034C033C032C031C030C079
:100010002FC02EC02DC02CC02BC02AC029C028C084
:1000200027C00C03F90311241FBECFE5D2E0DEBFC9
:10003000CDBF10E0A0E6B0E0E2EBFAE002C0059030
:100040000D92A638B107D9F720E0A6E8B0E001C0CC
:100050001D92AF3CB207E1F710E0C2E1D0E003C06F
:100060002197FE01E2D3C131D107D1F7AED315C537
:10007000C7CF5FB7F894DC011396ED91FC9114970C
:10008000218115969C91392F3095232321838281DC
:10009000442361F0892B82838081982381E009F4D5
:1000A00080E0FB0180835FBF80E008958323F3CF6E
:1000B000D6988EE68EB9769BFECF9FB1892F80951C
:1000C000817090FFD69A08951FB8D69A9EE69EB981
:1000D000769BFECF8111D6980895D69889B384FF78
:1000E000FDCF86FD07C099B390759031E1F381E0B3
:1000F000903509F080E00895FC011086178288E2AF
:100100008DB980EE8EB908951F93CF93DF93EC01E4
:10011000779B36C0D69889B3982F90759031D9F3D4
:1001200086FF03C0CE01E8DF1BC088E38DB980E6FF
:100130008EB9779AD2DF8111F5CF8F81988502979A
:10014000C9F483E090E098878F83188A198AEB813D
:10015000FC81BE01615F7F4FCE010A9609958C8BB1
:100160008F819885892B09F4B9C0C09ADF91CF910E
:100170001F91089581E090E098878F831986F0CFD2
:10018000769BEECF8FB12F8138852330310509F46E
:100190004AC040F421303105D9F02230310599F1BF
:1001A000D698C0CF2530310509F488C008F45EC068
:1001B00026303105A9F77CDF882309F4B3CF898580
:1001C0008FB988E38DB980E68EB918861F82C8CFB3
:1001D0002E81982F9E7F9213A5CF80FDA3CF998566
:1001E000890F898782E090E098878F831B861C8621
:1001F00081E06ADF88E38DB980E68EB96EDF8823FF
:1002000009F4AECF8FCF9B852A85921709F48ACF48
:10021000ED85FE85E90FF11D80839F5F9B879985A2
:10022000890F8987E5CF2E81982F9E7F92137ACFF1
:1002300080FF78CF9985890F9C8912E0911104C0C5
:1002400018891E5F9989191B810F898785E090E0C5
:10025000133010F084E090E098878F8380E034DFE3
:100260001FB988E38DB980E68EB97ACF21DF882364
:1002700009F458CF2889E98980E02E1761F091E0D0
:100280009E0F4A895B89E40FF52FF11D80812913A8
:1002900013C0188A198A9985980F99878FB988E3AE
:1002A0008DB980E68EB998898989981359CF85E0F0
:1002B00090E098878F8354CF998BEDCFF9DE882318
:1002C00009F430CF9C898985890F89879FB988E394
:1002D0008DB980E68EB986E090E0EBCFC09846CF2E
:1002E000FC0191818281292F30E0482F50E0241BAE
:1002F000350B1216130684F4A381B481A40FB51F25
:100300002C91DB012C938F5F981304C01182128211
:1003100080E008958283FCCF86E108950F931F93B8
:10032000CF93DF93FC01C181A42FB0E0208130E0A6
:100330008C2F90E0281B390B2A173B078CF0D42F09
:100340008F0123813481AD01820F931F9DD3CD0F87
:10035000F801C18380E0DF91CF911F910F91089543
:1003600085E1F9CFCF92DF92EF92FF920F931F9327
:10037000CF93DF9300D01F92CDB7DEB77C018A0107
:1003800069016A3021F06B30C9F183E32BC01A8216
:10039000DA0111969C91119712968C9198131BC0BB
:1003A000F80191818281981355C0D70112968C91E2
:1003B000811118C04A81BE016D5F7F4FC70159DEB0
:1003C000811110C08B81898341E0BE016F5F7F4F37
:1003D000C601A4DF07C0BE016E5F7F4FCA0180DF88
:1003E0008823F1F20F900F900F90DF91CF911F9122
:1003F0000F91FF90EF90DF90CF900895BE016F5F57
:100400007F4FCA016DDF8111EDCFF80191818281AB
:10041000981320C0D70112968C9112978111E2CFC8
:1004200039812FB7F8941396ED91FC911497159696
:100430009C91332359F03281932B92839181D70180
:1004400015963C91932B91832FBFCCCF3281909501
:100450009323F3CF84E3C6CFAF92BF92DF92EF92A4
:10046000FF920F931F93CF93DF9300D000D0CDB7AF
:10047000DEB78C017A015901643109F055C0BE0123
:100480006D5F7F4FCA012CDF81113AC08B81815093
:10049000873008F043C0BE016C5F7F4FC70120DF8B
:1004A00081112EC0DC808D2D8F77D1F5F7019181E0
:1004B0008281981337C0F8018681811121C0828121
:1004C00081111EC0FB8040E0BE016F5F7F4FC801FD
:1004D000D0DD811115C0F8018781D82AD7B88F2DBA
:1004E000806D86B93699FECF84B195B19A838983A0
:1004F00042E0BE016F5F7F4FC50110DF811100C078
:100500000F900F900F900F90DF91CF911F910F914F
:10051000FF90EF90DF90BF90AF90089589E2F0CF09
:100520008AE2EECF84E3ECCF1DDFEACFBF92CF9219
:10053000DF92EF92FF920F931F93CF93DF9300D040
:100540001F92CDB7DEB77C018B01BE016D5F7F4F7F
:10055000C7DED82E81113FC08B818130E9F4D701ED
:100560001196BC90119712968C91B81AC12CCB148D
:1005700091F1BE016E5F7F4FC701B2DE81112AC0CB
:100580008A81898341E0BE016F5F7F4FC801C6DE6B
:10059000811120C0C394EBCFBE016F5F7F4FC701B5
:1005A0009FDED82E811117C0E98182E3D82EE43076
:1005B00090F4F0E0EE0FFF1FEA59FF4F8081918128
:1005C000DC01ED91FC910190F081E02D9801A701F3
:1005D0006B810995D82E8D2D0F900F900F90DF9184
:1005E000CF911F910F91FF90EF90DF90CF90BF9030
:1005F000089546D2CF93DF931F92CDB7DEB7FC01AB
:100600002281211105C040E0BE016F5F7F4F31DDC7
:100610000F90DF91CF910895EF92FF920F931F9368
:10062000CF93DF931092B80084E890E09093B700E6
:100630008093B60086E992E09093BA008093B90067
:100640001092BB0088EC8093BC001092BE00109208
:10065000BD001092BF0080E18093C0001092C100E5
:100660001092C20080E190E0E6D09093C4008093A5
:10067000C30088E08093C5001092C6001092C700A6
:1006800088E090E0D8D09093C9008093C800109281
:10069000CA00E6EAF0E090E080E021913191232B5E
:1006A00009F08AC0880F991FFC01EA55FF4F86EBBD
:1006B00090E09183808381E08093B800CFB7F89475
:1006C0008BB380658BBB8AB38F7A80618ABB86EBE4
:1006D00090E012DDCFBFB89A82E7E82E80E0F82ED6
:1006E000F0929F00E0929E001092A00009E310E0BB
:1006F0001093A2000093A10088E08093A3008EE9EC
:1007000090E078DFC8E7D0E0D0939F00C0939E00D0
:100710001092A40083E08093A500F0929700E092ED
:1007200096001092980010939A000093990084E02C
:1007300080939B0086E990E05DDFD0939700C093A3
:10074000960010929C0082E080939D00F0928F00B2
:10075000E0928E001092900010939200009391000E
:10076000809393008EE890E045DFD0938F00C09394
:100770008E001092940081E080939500F0928700A3
:10078000E09286001092880010938A0000938900FE
:1007900080938B0086E890E02DDFD0938700C09394
:1007A000860010928C0010928D00DF91CF911F91E6
:1007B0000F91FF90EF90089501968830910509F010
:1007C0006CCF8AE08093BB0087CFBA9AC298C6EA02
:1007D000D0E089919991009739F0DC01ED91FC917D
:1007E0000190F081E02D0995B0E0C63BDB0789F769
:1007F000EECF8EE790E09093B7008093B600E6EAE4
:10080000F0E090E080E021913191265B304041F4AE
:10081000880F991FFC01EA55FF4F1182108208953D
:1008200001968830910579F70895EE0FFF1F059026
:10083000F491E02D09940F931F93CF93DF938230AF
:10084000910510F482E090E0E091CD00F091CE00AF
:1008500030E020E0B0E0A0E0309799F421153105B8
:1008600009F44AC0281B390B24303105D8F58A8198
:100870009B816115710589F1FB0193838283FE01E0
:1008800011C0408151810281138148175907E0F05E
:100890004817590799F4109761F012960C93129724
:1008A00013961C933296CF01DF91CF911F910F9138
:1008B00008950093CD001093CE00F4CF211531059B
:1008C00051F04217530738F0A901DB019A01BD012D
:1008D000DF01F801C1CFEF01F9CF9093CE008093F3
:1008E000CD00CDCFFE01E20FF31F819391932250F3
:1008F000310939832883D7CF2091CB003091CC00A8
:10090000232B41F420916200309163003093CC009E
:100910002093CB00209160003091610021153105BA
:1009200041F42DB73EB74091640050916500241BFF
:10093000350BE091CB00F091CC00E217F307A0F467
:100940002E1B3F0B2817390778F0AC014E5F5F4F25
:100950002417350748F04E0F5F1F5093CC0040938B
:10096000CB00819391939FCFF0E0E0E09CCFCF93B9
:10097000DF930097E9F0FC01329713821282A09175
:10098000CD00B091CE00ED0130E020E01097A1F451
:1009900020813181820F931F2091CB003091CC00B8
:1009A0002817390709F061C0F093CC00E093CB0021
:1009B000DF91CF910895EA01CE17DF07E8F54A816C
:1009C0005B819E0141155105B1F7E901FB83EA8383
:1009D00049915991C40FD51FEC17FD0761F480812F
:1009E00091810296840F951FE90199838883828102
:1009F00093819B838A83F0E0E0E012968D919C9135
:100A000013970097B9F52D913C911197CD0102965E
:100A1000820F931F2091CB003091CC00281739070B
:100A200039F6309751F51092CE001092CD00B09368
:100A3000CC00A093CB00BCCFD383C2834081518133
:100A4000840F951FC817D90761F44E5F5F4F8881E7
:100A50009981480F591F518340838A819B819383D9
:100A600082832115310509F0B0CFF093CE00E093D9
:100A7000CD009ECFFD01DC01C0CF13821282D7CF03
:100A800081E090E0F89409C0FB01DC0102C0019014
:100A90000D9241505040D8F7089510E0C2E1D0E0E7
:100AA00003C0FE01C2DE2196C331D107D1F7F8940D
:020AB000FFCF76
:100AB2000000CF0080009E0096008E00860000009D
:100AC2000000B201000000002C0200000000F90248
:060AD2000000000084009A
:00000001FF
